:100000000C9461000C947E000C947E000C947E0095
:100010000C947E000C947E000C947E000C947E0068
:100020000C947E000C947E000C947E000C947E0058
:100030000C947E000C947E000C947E000C947E0048
:100040000C9443020C947E000C947E000C947E0071
:100050000C947E000C947E000C947E000C947E0028
:100060000C947E000C947E00000000002400270009
:100070002A0000000000250028002B0000000000DE
:1000800023002600290004040404040404040202DA
:100090000202020203030303030301020408102007
:1000A0004080010204081020010204081020000012
:1000B0000008000201000003040700000000000027
:1000C000000011241FBECFEFD8E0DEBFCDBF11E08E
:1000D000A0E0B1E0E4EDF0E102C005900D92A4349F
:1000E000B107D9F721E0A4E4B1E001C01D92A73621
:1000F000B207E1F70E948D020C9468080C9400008E
:10010000833081F028F4813099F08230A9F008958D
:100110008730A9F08830C9F08430B1F48091800034
:100120008F7D03C0809180008F7780938000089539
:1001300084B58F7784BD089584B58F7DFBCF809182
:10014000B0008F778093B00008958091B0008F7DCC
:10015000F9CFCF93DF93282F30E0F901E255FF4F1D
:100160008491F901E656FF4FD491F901EA57FF4F08
:10017000C491CC23A1F081110E948000EC2FF0E00B
:10018000EE0FFF1FE458FF4FA591B491EC91ED23C2
:1001900081E090E009F480E0DF91CF91089580E064
:1001A00090E0FACF1F93CF93DF93282F30E0F9012F
:1001B000E255FF4F8491F901E656FF4FD491F901C2
:1001C000EA57FF4FC491CC23A9F0162F81110E944A
:1001D0008000EC2FF0E0EE0FFF1FEE58FF4FA591CF
:1001E000B4918FB7F894EC91111108C0D095DE232B
:1001F000DC938FBFDF91CF911F910895DE2BF8CF55
:10020000CF93DF9390E0FC01E656FF4F24918A578D
:100210009F4FFC0184918823C9F090E0880F991FBB
:10022000FC01E859FF4FA591B491FC01EE58FF4F36
:10023000C591D49161110DC09FB7F8948C91209510
:1002400082238C938881282328839FBFDF91CF91BD
:100250000895623051F49FB7F8943C91822F8095B5
:1002600083238C93E8812E2BEFCF8FB7F894EC91FA
:100270002E2B2C938FBFEACF1F93CF93DF93182F92
:10028000EB0161E00E940001209739F460E0812FCA
:10029000DF91CF911F910C94D200CF3FD10511F483
:1002A00061E0F5CFE12FF0E0E255FF4FE491E3305C
:1002B00031F140F4E130B1F0E230E1F0C038D10585
:1002C0007CF7E4CFE73029F1E83059F1E430B1F7B9
:1002D00080918000806280938000D0938B00C093D7
:1002E0008A0004C084B5806884BDC7BDDF91CF910A
:1002F0001F91089584B5806284BDC8BDF7CF8091F9
:100300008000806880938000D0938900C09388002B
:10031000EDCF8091B00080688093B000C093B300AF
:10032000E5CF8091B00080628093B000C093B400AC
:10033000DDCF2FB7F89460916301709164018091D3
:100340006501909166012FBF0895CF92DF92EF92E1
:10035000FF920F931F93CF93DF93EB017A01E0910C
:100360000201F0910301EE0FFF1FEC5FFE4FC08012
:10037000D1800FEF10E018161906DCF42FEF30E0F3
:100380002C193D09032E000C440B550B2F5F31092E
:1003900041095109DC010E949F052FEF30E040E048
:1003A00050E00E94750589019A0101501F4F2F4F9F
:1003B0003F4F1C161D060CF04BC02FEF30E02C19E0
:1003C0003D09032E000C440B550B2F5F31094109E9
:1003D0005109DE010E949F052FEF30E040E050E020
:1003E0000E94750521503F4F4F4F5F4FE9011E148A
:1003F0001F048CF52FEF30E02C193D09032E000C63
:10040000440B550B2F5F310941095109D7010E9457
:100410009F052FEF30E040E050E00E94750521502D
:100420003F4F4F4F5F4F7901B80189E00E943C0177
:10043000BE0186E00E943C01B70185E0DF91CF91CB
:100440001F910F91FF90EF90DF90CF900C943C01A3
:10045000CFEFD0E0CCCFEE24EA94F12CE5CF1F9380
:10046000CF93DF93EC01162F0E945F05181739F028
:10047000612FCE01DF91CF911F910C946705DF9121
:10048000CF911F9108951F920F920FB60F921124D2
:100490002F933F938F939F93AF93BF93809163016B
:1004A00090916401A0916501B09166013091620163
:1004B00023E0230F2D3758F50196A11DB11D209380
:1004C00062018093630190936401A0936501B093EE
:1004D000660180915E0190915F01A0916001B091F1
:1004E00061010196A11DB11D80935E0190935F0192
:1004F000A0936001B0936101BF91AF919F918F91E3
:100500003F912F910F900FBE0F901F90189526E8E6
:10051000230F0296A11DB11DD2CFCF93DF9300D040
:1005200000D0CDB7DEB7789484B5826084BD84B541
:10053000816084BD85B5826085BD85B5816085BDDE
:1005400080916E00816080936E0010928100809196
:10055000810082608093810080918100816080931E
:100560008100809180008160809380008091B10043
:1005700084608093B1008091B00081608093B0006E
:1005800080917A00846080937A0080917A00826002
:1005900080937A0080917A00816080937A008091C4
:1005A0007A00806880937A001092C10061E089E04F
:1005B0000E94000161E086E00E94000161E085E0A8
:1005C0000E94000162E082E00E94000160E083E09E
:1005D0000E94000161E088E00E94000162E084E086
:1005E0000E94000150E040E070E060E090E080E0B8
:1005F0000E94A50161E088E00E94D20090E080E0C6
:100600000E945F05893008F080E090E090935B01E4
:1006100080935A0181E090E00E945F05853008F0E8
:1006200084E090E0909303018093020182E00E94B5
:10063000A90090935D0180935C01909301018093E8
:10064000000182E00E94A9005C018091000190916C
:100650000101A816B90651F00E9499016093490161
:1006600070934A0180934B0190934C010E94990131
:100670004090490150904A0160904B0170904C01AC
:100680006419750986099709633371058105910518
:1006900028F180915C0190915D01A816B906F1F0F6
:1006A000B0925D01A0925C018824839480924801FD
:1006B00060E088E00E94D200A114B10409F009C1F1
:1006C0000E9499016C507E4F8F4F9F4F6093440161
:1006D000709345018093460190934701B0920101C8
:1006E000A0920001809148018823A9F00E949901FD
:1006F0008090440190904501A0904601B090470140
:10070000681579058A059B0530F061E088E00E9454
:10071000D2001092480183E00E94A90090935901F1
:10072000809358018130910509F0DAC0809156011B
:1007300090915701892BB1F40E9499016093520165
:10074000709353018093540190935501109251017D
:100750000E94990160934D0170934E0180934F0167
:1007600090935001A0905801B090590181E0A816D3
:10077000B104D1F480915101811103C10E9499010A
:100780004090520150905301609054017090550177
:100790006419750986099709683E734081059105BA
:1007A00018F081E080935101B0925701A092560158
:1007B00084E00E94A900892B09F07AC180915C0134
:1007C00090915D01892B09F073C180915A0190913C
:1007D0005B018830910509F05BC10E94990128EB0B
:1007E0003BE040E050E00E94A7050E94ED0620E0BB
:1007F00030E84BE355E40E94450620E030E040EC51
:1008000050E40E94D3072B013C010E942A070E945A
:10081000B7065B01072E000C880B990B0E94EF06B0
:100820009B01AC01C301B2010E94D8053B014C0100
:100830009B01AC0160E070E080E89FE30E94D80576
:10084000E62F472F382F292FC50166E070E00E9460
:1008500040088230910509F4F4C00CF0BEC0009746
:1008600009F4D2C0019709F4DEC020E030E04FE780
:1008700053E46E2D7D2DC1010E94D3070E94B7065F
:100880002B0120E030E04FE753E46C2D7B818C811D
:10089000912F0E94D3070E94B7064B0120E030E061
:1008A0004FE753E4602F7F2D89819A810E94D307FF
:1008B0000E94B706CB01A201B4010E94A50180E00D
:1008C000A82E80E0B82EAB2809F4BBCE0E94000011
:1008D000B8CE0E9499016056704F8F4F9F4FF6CE51
:1008E000892B09F03FCF80915601909157010197D4
:1008F00009F038CF80915101882389F0609102017D
:1009000081E090E00E942F02109252011092530158
:1009100010925401109255011092510123CF0E9460
:100920009901AB01BC018091520190915301A091BA
:100930005401B0915501EDEC8E2E99249A94A92C76
:10094000B92C881A990AAA0ABB0AD501C401840FD6
:10095000951FA61FB71F853B9340A105B105A0F6C3
:1009600080915A0190915B01019669E070E00E94CC
:10097000400880935A0190935B01682F90E080E0DB
:10098000C1CF0E94990140904D0150904E0160905E
:100990004F01709050016419750986099709643FE9
:1009A00071408105910508F4FFCE8091020190917C
:1009B0000301019665E070E00E94400890930301F6
:1009C000809302010E94990160934D0170934E0142
:1009D00080934F0190935001E7CE8430910509F444
:1009E00048C0E4F1059709F040CFEE2ED42E232E17
:1009F000322EC12C1B821C8210E000E0F12C90E80A
:100A000099832FE32A8331CFC62C7B828C82192DC8
:100A1000E12CD12C212C312C00E0F12C80E88983B1
:100A20009FE39A8322CF0E2FF42E39832A83E12C61
:100A3000D12C212C312CC12C1B8220E82C831FE3CC
:100A400014CFE62CD72C1401C12C1B8280E88C8398
:100A50001FE300E0F12C19821A8207CFCE2E4B83C0
:100A60003C83122FE12CD12C50E8252E6FE3362E3B
:100A7000F0CF062DF72C89829A82E12CD12C30E818
:100A8000232E4FE3342EC12C1B821C8210E0EDCEAE
:100A900026E0822E889EF001899EF00D1124E25FEF
:100AA000FE4F44815581628173818081918105CFA0
:100AB00050E040E070E060E090E080E0FECEF99928
:100AC000FECF92BD81BDF89A992780B50895262F53
:100AD000F999FECF1FBA92BD81BD20BD0FB6F89423
:100AE000FA9AF99A0FBE01960895052E97FB1EF407
:100AF00000940E948C0557FD07D00E94A70507FCB3
:100B000003D04EF40C948C0550954095309521956A
:100B10003F4F4F4F5F4F0895909580957095619529
:100B20007F4F8F4F9F4F08950E94C905A59F900D3D
:100B3000B49F900DA49F800D911D11240895B7FFBF
:100B40000C9494050E949405821B930B0895A1E2D6
:100B50001A2EAA1BBB1BFD010DC0AA1FBB1FEE1F37
:100B6000FF1FA217B307E407F50720F0A21BB30B82
:100B7000E40BF50B661F771F881F991F1A9469F7FE
:100B800060957095809590959B01AC01BD01CF015A
:100B90000895A29FB001B39FC001A39F700D811D56
:100BA0001124911DB29F700D811D1124911D089576
:100BB0005058BB27AA270E94F0050C9481070E9479
:100BC000730738F00E947A0720F039F49F3F19F438
:100BD00026F40C9470070EF4E095E7FB0C944107A3
:100BE000E92F0E94920758F3BA1762077307840728
:100BF000950720F079F4A6F50C94CC070EF4E09557
:100C00000B2EBA2FA02D0B01B90190010C01CA01C6
:100C1000A0011124FF27591B99F0593F50F4503E71
:100C200068F11A16F040A22F232F342F4427585F63
:100C3000F3CF469537952795A795F0405395C9F77B
:100C40007EF41F16BA0B620B730B840BBAF0915033
:100C5000A1F0FF0FBB1F661F771F881FC2F70EC0D2
:100C6000BA0F621F731F841F48F4879577956795A5
:100C7000B795F7959E3F08F0B0CF9395880F08F091
:100C80009927EE0F9795879508950E9459060C9421
:100C900081070E947A0758F00E94730740F029F4F8
:100CA0005F3F29F00C94410751110C94CD070C942F
:100CB00070070E94920768F39923B1F3552391F3CB
:100CC000951B550BBB27AA2762177307840738F0BB
:100CD0009F5F5F4F220F331F441FAA1FA9F335D018
:100CE0000E2E3AF0E0E832D091505040E695001CCC
:100CF000CAF72BD0FE2F29D0660F771F881FBB1F86
:100D0000261737074807AB07B0E809F0BB0B802D63
:100D1000BF01FF2793585F4F3AF09E3F510578F08F
:100D20000C9441070C94CD075F3FE4F3983ED4F355
:100D3000869577956795B795F7959F5FC9F7880F63
:100D4000911D9695879597F90895E1E0660F771FB5
:100D5000881FBB1F621773078407BA0720F0621B46
:100D6000730B840BBA0BEE1F88F7E09508950E9471
:100D7000BE066894B1110C94CD0708950E949A079D
:100D800088F09F5798F0B92F9927B751B0F0E1F04C
:100D9000660F771F881F991F1AF0BA95C9F714C0FC
:100DA000B13091F00E94CC07B1E008950C94CC07CB
:100DB000672F782F8827B85F39F0B93FCCF3869535
:100DC00077956795B395D9F73EF490958095709592
:100DD00061957F4F8F4F9F4F0895E89409C097FB0F
:100DE0003EF490958095709561957F4F8F4F9F4F02
:100DF0009923A9F0F92F96E9BB279395F695879546
:100E000077956795B795F111F8CFFAF4BB0F11F408
:100E100060FF1BC06F5F7F4F8F4F9F4F16C08823AF
:100E200011F096E911C0772321F09EE8872F762FE5
:100E300005C0662371F096E8862F70E060E02AF026
:100E40009A95660F771F881FDAF7880F9695879512
:100E500097F908950E94B40790F09F3748F49111D4
:100E600016F00C94CD0760E070E080E89FEB0895E9
:100E700026F41B16611D711D811D0C9447070C94EF
:100E8000620797F99F6780E870E060E00895882323
:100E900071F4772321F09850872B762F07C06623B3
:100EA00011F499270DC09051862B70E060E02AF074
:100EB0009A95660F771F881FDAF7880F96958795A2
:100EC00097F908959F3F31F0915020F487957795D9
:100ED0006795B795880F911D9695879597F9089511
:100EE0009FEF80EC089500240A9416161706180642
:100EF0000906089500240A9412161306140605061E
:100F00000895092E0394000C11F4882352F0BB0FAE
:100F100040F4BF2B11F460FF04C06F5F7F4F8F4F11
:100F20009F4F089557FD9058440F551F59F05F3F4C
:100F300071F04795880F97FB991F61F09F3F79F0FB
:100F400087950895121613061406551FF2CF46957D
:100F5000F1DF08C0161617061806991FF1CF8695FF
:100F600071056105089408950E949A07A0F0BEE7F4
:100F7000B91788F4BB279F3860F41616B11D672F88
:100F8000782F8827985FF7CF869577956795B11D5D
:100F900093959639C8F30895E894BB276627772779
:100FA000CB0197F908950E94E6070C9481070E94EF
:100FB000730738F00E947A0720F0952311F00C9403
:100FC00041070C94700711240C94CD070E949207DE
:100FD00070F3959FC1F3950F50E0551F629FF0018C
:100FE000729FBB27F00DB11D639FAA27F00DB11DA5
:100FF000AA1F649F6627B00DA11D661F829F22272E
:10100000B00DA11D621F739FB00DA11D621F839FB4
:10101000A00D611D221F749F3327A00D611D231F8A
:10102000849F600D211D822F762F6A2F11249F57D8
:1010300050409AF0F1F088234AF0EE0FFF1FBB1FDB
:10104000661F771F881F91505040A9F79E3F51059A
:1010500080F00C9441070C94CD075F3FE4F3983E79
:10106000D4F3869577956795B795F795E7959F5F44
:10107000C1F7FE2B880F911D9695879597F90895D6
:1010800097FB072E16F4009407D077FD09D00E9435
:10109000540807FC05D03EF4909581959F4F089524
:1010A000709561957F4F0895AA1BBB1B51E107C046
:1010B000AA1FBB1FA617B70710F0A61BB70B881FE8
:1010C000991F5A95A9F780959095BC01CD01089577
:0410D000F894FFCFC2
:1010D4000100040000001E0050009600FF00FF0005
:1010E400000000000000FF00000000000000FF00FE
:1010F400FF00FF0000000000FF00FF00FF000000F1
:10110400FF00FF00FF00FF00FF00280000000100B7
:0411140001000100D5
:00000001FF
